{
  "contractName": "CreateVC",
  "abi": [
    {
      "inputs": [
        {
          "internalType": "string",
          "name": "",
          "type": "string"
        }
      ],
      "name": "verifiableCredentials",
      "outputs": [
        {
          "internalType": "string",
          "name": "id",
          "type": "string"
        },
        {
          "internalType": "string",
          "name": "issuer",
          "type": "string"
        },
        {
          "internalType": "string",
          "name": "subject",
          "type": "string"
        },
        {
          "internalType": "uint256",
          "name": "issuedDate",
          "type": "uint256"
        }
      ],
      "stateMutability": "view",
      "type": "function",
      "constant": true
    },
    {
      "inputs": [
        {
          "internalType": "string",
          "name": "id",
          "type": "string"
        },
        {
          "internalType": "string",
          "name": "issuer",
          "type": "string"
        },
        {
          "internalType": "string",
          "name": "subject",
          "type": "string"
        },
        {
          "internalType": "uint256",
          "name": "issuedDate",
          "type": "uint256"
        },
        {
          "internalType": "string[]",
          "name": "claimKeys",
          "type": "string[]"
        },
        {
          "internalType": "string[]",
          "name": "claimValues",
          "type": "string[]"
        }
      ],
      "name": "createVerifiableCredential",
      "outputs": [],
      "stateMutability": "nonpayable",
      "type": "function"
    }
  ],
  "bytecode": "0x608060405234801561001057600080fd5b50610d83806100206000396000f3fe608060405234801561001057600080fd5b50600436106100365760003560e01c8063b1b9e8951461003b578063ea37a77e1461006e575b600080fd5b6100556004803603810190610050919061057e565b61008a565b604051610065949392919061065f565b60405180910390f35b610088600480360381019061008391906107cb565b610268565b005b6000818051602081018201805184825260208301602085012081835280955050505050506000915090508060000180546100c390610913565b80601f01602080910402602001604051908101604052809291908181526020018280546100ef90610913565b801561013c5780601f106101115761010080835404028352916020019161013c565b820191906000526020600020905b81548152906001019060200180831161011f57829003601f168201915b50505050509080600101805461015190610913565b80601f016020809104026020016040519081016040528092919081815260200182805461017d90610913565b80156101ca5780601f1061019f576101008083540402835291602001916101ca565b820191906000526020600020905b8154815290600101906020018083116101ad57829003601f168201915b5050505050908060020180546101df90610913565b80601f016020809104026020016040519081016040528092919081815260200182805461020b90610913565b80156102585780601f1061022d57610100808354040283529160200191610258565b820191906000526020600020905b81548152906001019060200180831161023b57829003601f168201915b5050505050908060030154905084565b600080876040516102799190610980565b908152602001604051809103902060030154146102cb576040517f08c379a00000000000000000000000000000000000000000000000000000000081526004016102c290610a09565b60405180910390fd5b600080876040516102dc9190610980565b90815260200160405180910390209050868160000190816102fd9190610bd5565b508581600101908161030f9190610bd5565b50848160020190816103219190610bd5565b5083816003018190555060005b83518110156103ac5782818151811061034a57610349610ca7565b5b60200260200101518260040185838151811061036957610368610ca7565b5b602002602001015160405161037e9190610980565b908152602001604051809103902090816103989190610bd5565b5080806103a490610d05565b91505061032e565b5060006103b8886103ef565b9050816005018190806001815401808255809150506001900390600052602060002001600090919091909150555050505050505050565b600080826040516020016104039190610980565b60405160208183030381529060405280519060200120905080915050919050565b6000604051905090565b600080fd5b600080fd5b600080fd5b600080fd5b6000601f19601f8301169050919050565b7f4e487b7100000000000000000000000000000000000000000000000000000000600052604160045260246000fd5b61048b82610442565b810181811067ffffffffffffffff821117156104aa576104a9610453565b5b80604052505050565b60006104bd610424565b90506104c98282610482565b919050565b600067ffffffffffffffff8211156104e9576104e8610453565b5b6104f282610442565b9050602081019050919050565b82818337600083830152505050565b600061052161051c846104ce565b6104b3565b90508281526020810184848401111561053d5761053c61043d565b5b6105488482856104ff565b509392505050565b600082601f83011261056557610564610438565b5b813561057584826020860161050e565b91505092915050565b6000602082840312156105945761059361042e565b5b600082013567ffffffffffffffff8111156105b2576105b1610433565b5b6105be84828501610550565b91505092915050565b600081519050919050565b600082825260208201905092915050565b60005b838110156106015780820151818401526020810190506105e6565b60008484015250505050565b6000610618826105c7565b61062281856105d2565b93506106328185602086016105e3565b61063b81610442565b840191505092915050565b6000819050919050565b61065981610646565b82525050565b60006080820190508181036000830152610679818761060d565b9050818103602083015261068d818661060d565b905081810360408301526106a1818561060d565b90506106b06060830184610650565b95945050505050565b6106c281610646565b81146106cd57600080fd5b50565b6000813590506106df816106b9565b92915050565b600067ffffffffffffffff821115610700576106ff610453565b5b602082029050602081019050919050565b600080fd5b6000610729610724846106e5565b6104b3565b9050808382526020820190506020840283018581111561074c5761074b610711565b5b835b8181101561079357803567ffffffffffffffff81111561077157610770610438565b5b80860161077e8982610550565b8552602085019450505060208101905061074e565b5050509392505050565b600082601f8301126107b2576107b1610438565b5b81356107c2848260208601610716565b91505092915050565b60008060008060008060c087890312156107e8576107e761042e565b5b600087013567ffffffffffffffff81111561080657610805610433565b5b61081289828a01610550565b965050602087013567ffffffffffffffff81111561083357610832610433565b5b61083f89828a01610550565b955050604087013567ffffffffffffffff8111156108605761085f610433565b5b61086c89828a01610550565b945050606061087d89828a016106d0565b935050608087013567ffffffffffffffff81111561089e5761089d610433565b5b6108aa89828a0161079d565b92505060a087013567ffffffffffffffff8111156108cb576108ca610433565b5b6108d789828a0161079d565b9150509295509295509295565b7f4e487b7100000000000000000000000000000000000000000000000000000000600052602260045260246000fd5b6000600282049050600182168061092b57607f821691505b60208210810361093e5761093d6108e4565b5b50919050565b600081905092915050565b600061095a826105c7565b6109648185610944565b93506109748185602086016105e3565b80840191505092915050565b600061098c828461094f565b915081905092915050565b7f56657269666961626c652043726564656e7469616c20616c726561647920657860008201527f6973747300000000000000000000000000000000000000000000000000000000602082015250565b60006109f36024836105d2565b91506109fe82610997565b604082019050919050565b60006020820190508181036000830152610a22816109e6565b9050919050565b60008190508160005260206000209050919050565b60006020601f8301049050919050565b600082821b905092915050565b600060088302610a8b7fffffffffffffffffffffffffffffffffffffffffffffffffffffffffffffffff82610a4e565b610a958683610a4e565b95508019841693508086168417925050509392505050565b6000819050919050565b6000610ad2610acd610ac884610646565b610aad565b610646565b9050919050565b6000819050919050565b610aec83610ab7565b610b00610af882610ad9565b848454610a5b565b825550505050565b600090565b610b15610b08565b610b20818484610ae3565b505050565b5b81811015610b4457610b39600082610b0d565b600181019050610b26565b5050565b601f821115610b8957610b5a81610a29565b610b6384610a3e565b81016020851015610b72578190505b610b86610b7e85610a3e565b830182610b25565b50505b505050565b600082821c905092915050565b6000610bac60001984600802610b8e565b1980831691505092915050565b6000610bc58383610b9b565b9150826002028217905092915050565b610bde826105c7565b67ffffffffffffffff811115610bf757610bf6610453565b5b610c018254610913565b610c0c828285610b48565b600060209050601f831160018114610c3f5760008415610c2d578287015190505b610c378582610bb9565b865550610c9f565b601f198416610c4d86610a29565b60005b82811015610c7557848901518255600182019150602085019450602081019050610c50565b86831015610c925784890151610c8e601f891682610b9b565b8355505b6001600288020188555050505b505050505050565b7f4e487b7100000000000000000000000000000000000000000000000000000000600052603260045260246000fd5b7f4e487b7100000000000000000000000000000000000000000000000000000000600052601160045260246000fd5b6000610d1082610646565b91507fffffffffffffffffffffffffffffffffffffffffffffffffffffffffffffffff8203610d4257610d41610cd6565b5b60018201905091905056fea26469706673582212202083b74eaf5bfcefad1d9e50a34274c819f31898df936dcd0398b7f099495ab264736f6c63430008130033",
  "immutableReferences": {},
  "source": "// SPDX-License-Identifier: MIT\npragma solidity ^0.8.0;\n\ncontract CreateVC {\n    struct VerifiableCredential {\n        string id;\n        string issuer;\n        string subject;\n        uint256 issuedDate;\n        mapping (string => string) claims;\n        bytes32[] proof;\n    }\n\n    mapping (string => VerifiableCredential) public verifiableCredentials;\n\n    function createVerifiableCredential(\n        string memory id,\n        string memory issuer,\n        string memory subject,\n        uint256 issuedDate,\n        string[] memory claimKeys,\n        string[] memory claimValues\n    ) public {\n        require(verifiableCredentials[id].issuedDate == 0, \"Verifiable Credential already exists\");\n\n        VerifiableCredential storage vc = verifiableCredentials[id];\n        vc.id = id;\n        vc.issuer = issuer;\n        vc.subject = subject;\n        vc.issuedDate = issuedDate;\n\n        for (uint i = 0; i < claimKeys.length; i++) {\n            vc.claims[claimKeys[i]] = claimValues[i];\n        }\n\n        // Generate and store proof (e.g., cryptographic signatures) for the verifiable credential\n        bytes32 proof = generateProof(id);\n        vc.proof.push(proof);\n    }\n\n    function generateProof(string memory id) private pure returns (bytes32) {\n        // Perform cryptographic operations to generate proof for the verifiable credential\n        // This could include signing the credential with a private key or using other secure methods\n        bytes32 proof = keccak256(abi.encodePacked(id));\n        return proof;\n    }\n}\n\n",
  "sourcePath": "/home/tony/BPSIdm/contracts/CreateVC.sol",
  "compiler": {
    "name": "solc",
    "version": "0.8.19+commit.7dd6d404.Emscripten.clang"
  },
  "schemaVersion": "3.4.13",
  "updatedAt": "2023-06-02T07:29:59.825Z",
  "networkType": "ethereum",
  "devdoc": {
    "kind": "dev",
    "methods": {},
    "version": 1
  },
  "userdoc": {
    "kind": "user",
    "methods": {},
    "version": 1
  }
}