{
  "contractName": "ShamirSecretSharing",
  "abi": [
    {
      "anonymous": false,
      "inputs": [
        {
          "indexed": false,
          "internalType": "bytes32",
          "name": "id",
          "type": "bytes32"
        },
        {
          "indexed": false,
          "internalType": "uint8",
          "name": "threshold",
          "type": "uint8"
        },
        {
          "indexed": false,
          "internalType": "uint8",
          "name": "numShares",
          "type": "uint8"
        }
      ],
      "name": "SecretShared",
      "type": "event"
    },
    {
      "inputs": [
        {
          "internalType": "bytes32",
          "name": "id",
          "type": "bytes32"
        },
        {
          "internalType": "uint256",
          "name": "secret",
          "type": "uint256"
        },
        {
          "internalType": "uint8",
          "name": "n",
          "type": "uint8"
        },
        {
          "internalType": "uint8",
          "name": "k",
          "type": "uint8"
        }
      ],
      "name": "createSecret",
      "outputs": [],
      "stateMutability": "nonpayable",
      "type": "function"
    },
    {
      "inputs": [
        {
          "internalType": "bytes32",
          "name": "id",
          "type": "bytes32"
        },
        {
          "internalType": "uint8",
          "name": "index",
          "type": "uint8"
        }
      ],
      "name": "getShare",
      "outputs": [
        {
          "internalType": "uint8",
          "name": "",
          "type": "uint8"
        },
        {
          "internalType": "uint256",
          "name": "",
          "type": "uint256"
        }
      ],
      "stateMutability": "view",
      "type": "function"
    },
    {
      "inputs": [
        {
          "internalType": "bytes32",
          "name": "id",
          "type": "bytes32"
        },
        {
          "components": [
            {
              "internalType": "uint8",
              "name": "index",
              "type": "uint8"
            },
            {
              "internalType": "uint256",
              "name": "value",
              "type": "uint256"
            }
          ],
          "internalType": "struct ShamirSecretSharing.Share[]",
          "name": "shares",
          "type": "tuple[]"
        }
      ],
      "name": "distributeShares",
      "outputs": [],
      "stateMutability": "nonpayable",
      "type": "function"
    },
    {
      "inputs": [
        {
          "internalType": "bytes32",
          "name": "id",
          "type": "bytes32"
        },
        {
          "internalType": "uint8[]",
          "name": "shareIndexes",
          "type": "uint8[]"
        }
      ],
      "name": "reconstructSecret",
      "outputs": [
        {
          "internalType": "uint256",
          "name": "",
          "type": "uint256"
        }
      ],
      "stateMutability": "view",
      "type": "function"
    }
  ],
  "bytecode": "0x608060405234801561001057600080fd5b5061104a806100206000396000f3fe608060405234801561001057600080fd5b506004361061004c5760003560e01c80636f3b427614610051578063e60fc58d14610082578063f0449df71461009e578063f80bb944146100ba575b600080fd5b61006b600480360381019061006691906107ec565b6100ea565b604051610079929190610854565b60405180910390f35b61009c60048036038101906100979190610a57565b6101f7565b005b6100b860048036038101906100b39190610ab3565b610443565b005b6100d460048036038101906100cf9190610bdd565b61057e565b6040516100e19190610c39565b60405180910390f35b60008060008060008681526020019081526020016000209050600081600101540361014a576040517f08c379a000000000000000000000000000000000000000000000000000000000815260040161014190610cb1565b60405180910390fd5b60018460ff161015801561017557508060000160019054906101000a900460ff1660ff168460ff1611155b6101b4576040517f08c379a00000000000000000000000000000000000000000000000000000000081526004016101ab90610d1d565b60405180910390fd5b60008160020160008660ff1660ff16815260200190815260200160002090508060000160009054906101000a900460ff1681600101549350935050509250929050565b600080600084815260200190815260200160002090506000816001015403610254576040517f08c379a000000000000000000000000000000000000000000000000000000000815260040161024b90610cb1565b60405180910390fd5b8060000160019054906101000a900460ff1660ff168251146102ab576040517f08c379a00000000000000000000000000000000000000000000000000000000081526004016102a290610d89565b60405180910390fd5b60005b82518160ff16101561043d576001838260ff16815181106102d2576102d1610da9565b5b60200260200101516000015160ff161015801561032757508160000160019054906101000a900460ff1660ff16838260ff168151811061031557610314610da9565b5b60200260200101516000015160ff1611155b610366576040517f08c379a000000000000000000000000000000000000000000000000000000000815260040161035d90610d1d565b60405180910390fd5b6040518060400160405280848360ff168151811061038757610386610da9565b5b60200260200101516000015160ff168152602001848360ff16815181106103b1576103b0610da9565b5b602002602001015160200151815250826002016000858460ff16815181106103dc576103db610da9565b5b60200260200101516000015160ff1660ff16815260200190815260200160002060008201518160000160006101000a81548160ff021916908360ff16021790555060208201518160010155905050808061043590610e07565b9150506102ae565b50505050565b6000806000868152602001908152602001600020600101541461049b576040517f08c379a000000000000000000000000000000000000000000000000000000000815260040161049290610e7c565b60405180910390fd5b8060ff168260ff1610156104e4576040517f08c379a00000000000000000000000000000000000000000000000000000000081526004016104db90610f0e565b60405180910390fd5b60008060008681526020019081526020016000209050818160000160006101000a81548160ff021916908360ff160217905550828160000160016101000a81548160ff021916908360ff1602179055508381600101819055507e8968a6304b6c1de529cf2c5247e5d355e215ce4bff1bd85243c5df8d9add9185838560405161056f93929190610f3d565b60405180910390a15050505050565b600080600080858152602001908152602001600020905060008160010154036105dc576040517f08c379a00000000000000000000000000000000000000000000000000000000081526004016105d390610cb1565b60405180910390fd5b8060000160009054906101000a900460ff1660ff1683511015610634576040517f08c379a000000000000000000000000000000000000000000000000000000000815260040161062b90610fc0565b60405180910390fd5b60008160000160009054906101000a900460ff1690506000805b8260ff168160ff16101561075c576001868260ff168151811061067457610673610da9565b5b602002602001015160ff16101580156106c157508360000160019054906101000a900460ff1660ff16868260ff16815181106106b3576106b2610da9565b5b602002602001015160ff1611155b610700576040517f08c379a00000000000000000000000000000000000000000000000000000000081526004016106f790610d1d565b60405180910390fd5b836002016000878360ff168151811061071c5761071b610da9565b5b602002602001015160ff1660ff16815260200190815260200160002060010154826107479190610fe0565b9150808061075490610e07565b91505061064e565b5080935050505092915050565b6000604051905090565b600080fd5b600080fd5b6000819050919050565b6107908161077d565b811461079b57600080fd5b50565b6000813590506107ad81610787565b92915050565b600060ff82169050919050565b6107c9816107b3565b81146107d457600080fd5b50565b6000813590506107e6816107c0565b92915050565b6000806040838503121561080357610802610773565b5b60006108118582860161079e565b9250506020610822858286016107d7565b9150509250929050565b610835816107b3565b82525050565b6000819050919050565b61084e8161083b565b82525050565b6000604082019050610869600083018561082c565b6108766020830184610845565b9392505050565b600080fd5b6000601f19601f8301169050919050565b7f4e487b7100000000000000000000000000000000000000000000000000000000600052604160045260246000fd5b6108cb82610882565b810181811067ffffffffffffffff821117156108ea576108e9610893565b5b80604052505050565b60006108fd610769565b905061090982826108c2565b919050565b600067ffffffffffffffff82111561092957610928610893565b5b602082029050602081019050919050565b600080fd5b600080fd5b61094d8161083b565b811461095857600080fd5b50565b60008135905061096a81610944565b92915050565b6000604082840312156109865761098561093f565b5b61099060406108f3565b905060006109a0848285016107d7565b60008301525060206109b48482850161095b565b60208301525092915050565b60006109d36109ce8461090e565b6108f3565b905080838252602082019050604084028301858111156109f6576109f561093a565b5b835b81811015610a1f5780610a0b8882610970565b8452602084019350506040810190506109f8565b5050509392505050565b600082601f830112610a3e57610a3d61087d565b5b8135610a4e8482602086016109c0565b91505092915050565b60008060408385031215610a6e57610a6d610773565b5b6000610a7c8582860161079e565b925050602083013567ffffffffffffffff811115610a9d57610a9c610778565b5b610aa985828601610a29565b9150509250929050565b60008060008060808587031215610acd57610acc610773565b5b6000610adb8782880161079e565b9450506020610aec8782880161095b565b9350506040610afd878288016107d7565b9250506060610b0e878288016107d7565b91505092959194509250565b600067ffffffffffffffff821115610b3557610b34610893565b5b602082029050602081019050919050565b6000610b59610b5484610b1a565b6108f3565b90508083825260208201905060208402830185811115610b7c57610b7b61093a565b5b835b81811015610ba55780610b9188826107d7565b845260208401935050602081019050610b7e565b5050509392505050565b600082601f830112610bc457610bc361087d565b5b8135610bd4848260208601610b46565b91505092915050565b60008060408385031215610bf457610bf3610773565b5b6000610c028582860161079e565b925050602083013567ffffffffffffffff811115610c2357610c22610778565b5b610c2f85828601610baf565b9150509250929050565b6000602082019050610c4e6000830184610845565b92915050565b600082825260208201905092915050565b7f536563726574206e6f7420666f756e6400000000000000000000000000000000600082015250565b6000610c9b601083610c54565b9150610ca682610c65565b602082019050919050565b60006020820190508181036000830152610cca81610c8e565b9050919050565b7f496e76616c696420736861726520696e64657800000000000000000000000000600082015250565b6000610d07601383610c54565b9150610d1282610cd1565b602082019050919050565b60006020820190508181036000830152610d3681610cfa565b9050919050565b7f496e76616c6964206e756d626572206f66207368617265730000000000000000600082015250565b6000610d73601883610c54565b9150610d7e82610d3d565b602082019050919050565b60006020820190508181036000830152610da281610d66565b9050919050565b7f4e487b7100000000000000000000000000000000000000000000000000000000600052603260045260246000fd5b7f4e487b7100000000000000000000000000000000000000000000000000000000600052601160045260246000fd5b6000610e12826107b3565b915060ff8203610e2557610e24610dd8565b5b600182019050919050565b7f53656372657420616c7265616479206372656174656400000000000000000000600082015250565b6000610e66601683610c54565b9150610e7182610e30565b602082019050919050565b60006020820190508181036000830152610e9581610e59565b9050919050565b7f496e76616c6964206e756d626572206f6620736861726573206f72207468726560008201527f73686f6c64000000000000000000000000000000000000000000000000000000602082015250565b6000610ef8602583610c54565b9150610f0382610e9c565b604082019050919050565b60006020820190508181036000830152610f2781610eeb565b9050919050565b610f378161077d565b82525050565b6000606082019050610f526000830186610f2e565b610f5f602083018561082c565b610f6c604083018461082c565b949350505050565b7f496e73756666696369656e74207368617265732070726f766964656400000000600082015250565b6000610faa601c83610c54565b9150610fb582610f74565b602082019050919050565b60006020820190508181036000830152610fd981610f9d565b9050919050565b6000610feb8261083b565b9150610ff68361083b565b925082820190508082111561100e5761100d610dd8565b5b9291505056fea26469706673582212208ab435d69539800845cc929bd74e4ebc5740968ea5aa51a1713aab52c980721f64736f6c63430008130033",
  "immutableReferences": {},
  "source": "// SPDX-License-Identifier: MIT\npragma solidity ^0.8.0;\n\ncontract ShamirSecretSharing {\n    struct Share {\n        uint8 index;\n        uint256 value;\n    }\n\n    struct Secret {\n        uint8 threshold;\n        uint8 numShares;\n        uint256 secret;\n        mapping(uint8 => Share) shares;\n    }\n\n    mapping(bytes32 => Secret) private secrets;\n\n    event SecretShared(bytes32 id, uint8 threshold, uint8 numShares);\n\n    function createSecret(bytes32 id, uint256 secret, uint8 n, uint8 k) public {\n        require(secrets[id].secret == 0, \"Secret already created\");\n        require(n >= k, \"Invalid number of shares or threshold\");\n\n        Secret storage secretObj = secrets[id];\n        secretObj.threshold = k;\n        secretObj.numShares = n;\n        secretObj.secret = secret;\n\n        emit SecretShared(id, k, n);\n    }\n\n    function getShare(bytes32 id, uint8 index) public view returns (uint8, uint256) {\n        Secret storage secret = secrets[id];\n        require(secret.secret != 0, \"Secret not found\");\n        require(index >= 1 && index <= secret.numShares, \"Invalid share index\");\n        Share storage share = secret.shares[index];\n        return (share.index, share.value);\n    }\n\n    function distributeShares(bytes32 id, Share[] memory shares) public {\n        Secret storage secret = secrets[id];\n        require(secret.secret != 0, \"Secret not found\");\n        require(shares.length == secret.numShares, \"Invalid number of shares\");\n\n        for (uint8 i = 0; i < shares.length; i++) {\n            require(shares[i].index >= 1 && shares[i].index <= secret.numShares, \"Invalid share index\");\n            secret.shares[shares[i].index] = Share(shares[i].index, shares[i].value);\n        }\n    }\n\n    function reconstructSecret(bytes32 id, uint8[] memory shareIndexes) public view returns (uint256) {\n        Secret storage secret = secrets[id];\n        require(secret.secret != 0, \"Secret not found\");\n        require(shareIndexes.length >= secret.threshold, \"Insufficient shares provided\");\n\n        uint8 k = secret.threshold;\n        uint256 result = 0;\n\n        for (uint8 i = 0; i < k; i++) {\n            require(shareIndexes[i] >= 1 && shareIndexes[i] <= secret.numShares, \"Invalid share index\");\n            result += secret.shares[shareIndexes[i]].value;\n        }\n\n        return result;\n    }\n}\n\n\n",
  "sourcePath": "/home/tony/BPSIdm/contracts/IssuerVC.sol",
  "compiler": {
    "name": "solc",
    "version": "0.8.19+commit.7dd6d404.Emscripten.clang"
  },
  "schemaVersion": "3.4.13",
  "updatedAt": "2023-05-30T02:47:42.608Z",
  "devdoc": {
    "kind": "dev",
    "methods": {},
    "version": 1
  },
  "userdoc": {
    "kind": "user",
    "methods": {},
    "version": 1
  }
}