{
  "contractName": "Verifier",
  "abi": [
    {
      "inputs": [
        {
          "components": [
            {
              "components": [
                {
                  "internalType": "uint256",
                  "name": "X",
                  "type": "uint256"
                },
                {
                  "internalType": "uint256",
                  "name": "Y",
                  "type": "uint256"
                }
              ],
              "internalType": "struct Pairing.G1Point",
              "name": "a",
              "type": "tuple"
            },
            {
              "components": [
                {
                  "internalType": "uint256[2]",
                  "name": "X",
                  "type": "uint256[2]"
                },
                {
                  "internalType": "uint256[2]",
                  "name": "Y",
                  "type": "uint256[2]"
                }
              ],
              "internalType": "struct Pairing.G2Point",
              "name": "b",
              "type": "tuple"
            },
            {
              "components": [
                {
                  "internalType": "uint256",
                  "name": "X",
                  "type": "uint256"
                },
                {
                  "internalType": "uint256",
                  "name": "Y",
                  "type": "uint256"
                }
              ],
              "internalType": "struct Pairing.G1Point",
              "name": "c",
              "type": "tuple"
            }
          ],
          "internalType": "struct Verifier.Proof",
          "name": "proof",
          "type": "tuple"
        },
        {
          "internalType": "uint256[7]",
          "name": "input",
          "type": "uint256[7]"
        }
      ],
      "name": "verifyTx",
      "outputs": [
        {
          "internalType": "bool",
          "name": "r",
          "type": "bool"
        }
      ],
      "stateMutability": "view",
      "type": "function"
    }
  ],
  "bytecode": "0x608060405234801561001057600080fd5b5061177e806100206000396000f3fe608060405234801561001057600080fd5b506004361061002b5760003560e01c8063f07322a714610030575b600080fd5b61004a60048036038101906100459190611520565b610060565b604051610057919061157d565b60405180910390f35b600080600767ffffffffffffffff81111561007e5761007d6111fe565b5b6040519080825280602002602001820160405280156100ac5781602001602082028036833780820191505090505b50905060005b6007811015610105578381600781106100ce576100cd611598565b5b60200201518282815181106100e6576100e5611598565b5b60200260200101818152505080806100fd906115f6565b9150506100b2565b506000610112828661012d565b03610121576001915050610127565b60009150505b92915050565b6000807f30644e72e131a029b85045b68181585d2833e84879b9709143e1f593f00000019050600061015d6102c4565b905080608001515160018651610173919061163e565b1461017d57600080fd5b60006040518060400160405280600081526020016000815250905060005b865181101561023657838782815181106101b8576101b7611598565b5b6020026020010151106101ca57600080fd5b6102218261021c85608001516001856101e3919061163e565b815181106101f4576101f3611598565b5b60200260200101518a858151811061020f5761020e611598565b5b6020026020010151610998565b610a3a565b9150808061022e906115f6565b91505061019b565b5061026081836080015160008151811061025357610252611598565b5b6020026020010151610a3a565b90506102a68560000151866020015161027884610b02565b856040015161028a8a60400151610b02565b876060015161029c8960000151610b02565b8960200151610ba7565b6102b657600193505050506102be565b600093505050505b92915050565b6102cc6110ca565b60405180604001604052807f19eff1557b79f23ff6ee607d3815647194285898f7938e441c1b86935a68b4dd81526020017f24f0973f016bc1692ee245992f15dd98fc495df55cb16e82f9c04d856a4d8efc8152508160000181905250604051806040016040528060405180604001604052807f09ff943f4551e8297c37edd2ae22f88369e74bf0dd1f790f2862018d40e0981d81526020017f07fb809c50fec215d6951ffbf529f0e6df1acab6f5d6881b25307f89bbecf3cf815250815260200160405180604001604052807f1dc588be9ca14b595e85bc5223b6fcd7d0c38dc59fbbdd5b54718061fc2e691e81526020017f04a0afd1586a94b4624d471fb458ba484057041a2c819ed8a50e19b4be1b41898152508152508160200181905250604051806040016040528060405180604001604052807f0ce502386934cde6d6382820ddb8f8fd057951a13fa2345f854a5a87d8285b6181526020017f1dac6157668604f329182660e7bcc4b5456b72766e694a564132a965ea6ecffd815250815260200160405180604001604052807f10f4b397fff44a05e07f7c2c1238d59ddcde5e3b62e275792b05dc23e6a7648781526020017f0e474bd8465e7dbde48f0c8d1023fecf3a4d356eae32284f22e35ab273cbec4c8152508152508160400181905250604051806040016040528060405180604001604052807f242c3a08ee0654e80c55aaaedbdcc357b373089ba98d8d01c37412292dfc487381526020017f2ce8bdb2ac1eb1c37a2eaf0a7a53c3cf8ba379990302cc4bb4fdb1605ebaac17815250815260200160405180604001604052807f0ea0953a4663f22b9795d632c823b85c35e8cf678cf64f66b5a4f74c5b75104e81526020017f0bbc4467271b4930ea6cbf2246ca5ffbd6f283bf0dc14425c74c90c04e546d698152508152508160600181905250600867ffffffffffffffff811115610593576105926111fe565b5b6040519080825280602002602001820160405280156105cc57816020015b6105b9611111565b8152602001906001900390816105b15790505b50816080018190525060405180604001604052807f2f5992dbf9d446be2a041308bb8c603ef02b3e93914ca931b62718e5441703f081526020017f1dbe23a2d7419b416f30ced3f41751dfe78dc0d3f64381935d7dc7785e21dd19815250816080015160008151811061064257610641611598565b5b602002602001018190525060405180604001604052807f068209c31898ddd2af5bd6746c461e11c74ad329e053a0ea9af32443085b417e81526020017f1a1a52d89f55a7cacd6a13784dfd6f16882739ef5b2c6d58aadb6a01e68c243281525081608001516001815181106106ba576106b9611598565b5b602002602001018190525060405180604001604052807f299cd66c8955d063e587d58e42ebc6a906c1975e303771c466ae1db79cad6d1681526020017f061c69024e7e2883e08d5d525731559a7f3003628727f98eaa15eb7ace170bdd815250816080015160028151811061073257610731611598565b5b602002602001018190525060405180604001604052807f07caf84720ff297d42eadde6e24a6ef03cc5a61055a0b38d79f6f49091b8b3cd81526020017f27e9d13ef13d6c886c5be48f1dde408d0deac8634b144bc9129155d35e5f0cc781525081608001516003815181106107aa576107a9611598565b5b602002602001018190525060405180604001604052807f0c9cfad153411f842efa954d50f26571733873c728d8c0270a4cb6d90f93a5cc81526020017f14c993adfd1e0dc7f1abc2bab67fd22f071dfd1cebca1ae6824d05b6385f4034815250816080015160048151811061082257610821611598565b5b602002602001018190525060405180604001604052807f0532d5717ccb18f2c0d7c9b0717317608019df0821da47905e43aaf9d83665fc81526020017f0f64ee4de840143f0c0f6e8619048a77419aaf7786612d1b64748aea9b01c462815250816080015160058151811061089a57610899611598565b5b602002602001018190525060405180604001604052807f0a66af4081123d5828fcfd2ab119eb7bf0af988e644b4ea47ddeaefe0c4ac55f81526020017f1b65051be178dbf1c86e84e5c02b27be7dc217b155b7069b6155eac62228e889815250816080015160068151811061091257610911611598565b5b602002602001018190525060405180604001604052807f3048ca67a5d1d22e32935b9f823d1fe602261734b64c8a4b11a285bf2d36bfb281526020017f24d5053595d154a075ced75b196782663b2421270e6eb83792adce06d6374626815250816080015160078151811061098a57610989611598565b5b602002602001018190525090565b6109a0611111565b6109a861112b565b8360000151816000600381106109c1576109c0611598565b5b6020020181815250508360200151816001600381106109e3576109e2611598565b5b6020020181815250508281600260038110610a0157610a00611598565b5b602002018181525050600060608360808460076107d05a03fa90508060008103610a2757fe5b5080610a3257600080fd5b505092915050565b610a42611111565b610a4a61114d565b836000015181600060048110610a6357610a62611598565b5b602002018181525050836020015181600160048110610a8557610a84611598565b5b602002018181525050826000015181600260048110610aa757610aa6611598565b5b602002018181525050826020015181600360048110610ac957610ac8611598565b5b602002018181525050600060608360c08460066107d05a03fa90508060008103610aef57fe5b5080610afa57600080fd5b505092915050565b610b0a611111565b60007f30644e72e131a029b85045b68181585d97816a916871ca8d3c208c16d87cfd47905060008360000151148015610b47575060008360200151145b15610b6b576040518060400160405280600081526020016000815250915050610ba2565b604051806040016040528084600001518152602001828560200151610b9091906116a1565b83610b9b91906116d2565b8152509150505b919050565b600080600467ffffffffffffffff811115610bc557610bc46111fe565b5b604051908082528060200260200182016040528015610bfe57816020015b610beb611111565b815260200190600190039081610be35790505b5090506000600467ffffffffffffffff811115610c1e57610c1d6111fe565b5b604051908082528060200260200182016040528015610c5757816020015b610c4461116f565b815260200190600190039081610c3c5790505b5090508a82600081518110610c6f57610c6e611598565b5b60200260200101819052508882600181518110610c8f57610c8e611598565b5b60200260200101819052508682600281518110610caf57610cae611598565b5b60200260200101819052508482600381518110610ccf57610cce611598565b5b60200260200101819052508981600081518110610cef57610cee611598565b5b60200260200101819052508781600181518110610d0f57610d0e611598565b5b60200260200101819052508581600281518110610d2f57610d2e611598565b5b60200260200101819052508381600381518110610d4f57610d4e611598565b5b6020026020010181905250610d648282610d74565b9250505098975050505050505050565b60008151835114610d8457600080fd5b6000835190506000600682610d999190611706565b905060008167ffffffffffffffff811115610db757610db66111fe565b5b604051908082528060200260200182016040528015610de55781602001602082028036833780820191505090505b50905060005b8381101561106a57868181518110610e0657610e05611598565b5b602002602001015160000151826000600684610e229190611706565b610e2c919061163e565b81518110610e3d57610e3c611598565b5b602002602001018181525050868181518110610e5c57610e5b611598565b5b602002602001015160200151826001600684610e789190611706565b610e82919061163e565b81518110610e9357610e92611598565b5b602002602001018181525050858181518110610eb257610eb1611598565b5b602002602001015160000151600160028110610ed157610ed0611598565b5b6020020151826002600684610ee69190611706565b610ef0919061163e565b81518110610f0157610f00611598565b5b602002602001018181525050858181518110610f2057610f1f611598565b5b602002602001015160000151600060028110610f3f57610f3e611598565b5b6020020151826003600684610f549190611706565b610f5e919061163e565b81518110610f6f57610f6e611598565b5b602002602001018181525050858181518110610f8e57610f8d611598565b5b602002602001015160200151600160028110610fad57610fac611598565b5b6020020151826004600684610fc29190611706565b610fcc919061163e565b81518110610fdd57610fdc611598565b5b602002602001018181525050858181518110610ffc57610ffb611598565b5b60200260200101516020015160006002811061101b5761101a611598565b5b60200201518260056006846110309190611706565b61103a919061163e565b8151811061104b5761104a611598565b5b6020026020010181815250508080611062906115f6565b915050610deb565b50611073611195565b6000602082602086026020860160086107d05a03fa9050806000810361109557fe5b50806110a057600080fd5b6000826000600181106110b6576110b5611598565b5b602002015114159550505050505092915050565b6040518060a001604052806110dd611111565b81526020016110ea61116f565b81526020016110f761116f565b815260200161110461116f565b8152602001606081525090565b604051806040016040528060008152602001600081525090565b6040518060600160405280600390602082028036833780820191505090505090565b6040518060800160405280600490602082028036833780820191505090505090565b60405180604001604052806111826111b7565b815260200161118f6111b7565b81525090565b6040518060200160405280600190602082028036833780820191505090505090565b6040518060400160405280600290602082028036833780820191505090505090565b6000604051905090565b600080fd5b600080fd5b6000601f19601f8301169050919050565b7f4e487b7100000000000000000000000000000000000000000000000000000000600052604160045260246000fd5b611236826111ed565b810181811067ffffffffffffffff82111715611255576112546111fe565b5b80604052505050565b60006112686111d9565b9050611274828261122d565b919050565b6000819050919050565b61128c81611279565b811461129757600080fd5b50565b6000813590506112a981611283565b92915050565b6000604082840312156112c5576112c46111e8565b5b6112cf604061125e565b905060006112df8482850161129a565b60008301525060206112f38482850161129a565b60208301525092915050565b600080fd5b600067ffffffffffffffff82111561131f5761131e6111fe565b5b602082029050919050565b600080fd5b600061134261133d84611304565b61125e565b9050806020840283018581111561135c5761135b61132a565b5b835b818110156113855780611371888261129a565b84526020840193505060208101905061135e565b5050509392505050565b600082601f8301126113a4576113a36112ff565b5b60026113b184828561132f565b91505092915050565b6000608082840312156113d0576113cf6111e8565b5b6113da604061125e565b905060006113ea8482850161138f565b60008301525060406113fe8482850161138f565b60208301525092915050565b60006101008284031215611421576114206111e8565b5b61142b606061125e565b9050600061143b848285016112af565b600083015250604061144f848285016113ba565b60208301525060c0611463848285016112af565b60408301525092915050565b600067ffffffffffffffff82111561148a576114896111fe565b5b602082029050919050565b60006114a86114a38461146f565b61125e565b905080602084028301858111156114c2576114c161132a565b5b835b818110156114eb57806114d7888261129a565b8452602084019350506020810190506114c4565b5050509392505050565b600082601f83011261150a576115096112ff565b5b6007611517848285611495565b91505092915050565b6000806101e08385031215611538576115376111e3565b5b60006115468582860161140a565b925050610100611558858286016114f5565b9150509250929050565b60008115159050919050565b61157781611562565b82525050565b6000602082019050611592600083018461156e565b92915050565b7f4e487b7100000000000000000000000000000000000000000000000000000000600052603260045260246000fd5b7f4e487b7100000000000000000000000000000000000000000000000000000000600052601160045260246000fd5b600061160182611279565b91507fffffffffffffffffffffffffffffffffffffffffffffffffffffffffffffffff8203611633576116326115c7565b5b600182019050919050565b600061164982611279565b915061165483611279565b925082820190508082111561166c5761166b6115c7565b5b92915050565b7f4e487b7100000000000000000000000000000000000000000000000000000000600052601260045260246000fd5b60006116ac82611279565b91506116b783611279565b9250826116c7576116c6611672565b5b828206905092915050565b60006116dd82611279565b91506116e883611279565b9250828203905081811115611700576116ff6115c7565b5b92915050565b600061171182611279565b915061171c83611279565b925082820261172a81611279565b91508282048414831517611741576117406115c7565b5b509291505056fea26469706673582212208d8758ab7ca72c336823d23eeab66f1f77afaa5cb997fb5f37f6ba796c9cb41664736f6c63430008130033",
  "immutableReferences": {},
  "source": "// SPDX-License-Identifier: MIT\npragma solidity ^0.8.0;\n\nlibrary Pairing {\n    struct G1Point {\n        uint X;\n        uint Y;\n    }\n    // Encoding of field elements is: X[0] * z + X[1]\n    struct G2Point {\n        uint[2] X;\n        uint[2] Y;\n    }\n    /// @return the generator of G1\n    function P1() pure internal returns (G1Point memory) {\n        return G1Point(1, 2);\n    }\n    /// @return the generator of G2\n    function P2() pure internal returns (G2Point memory) {\n        return G2Point(\n            [10857046999023057135944570762232829481370756359578518086990519993285655852781,\n             11559732032986387107991004021392285783925812861821192530917403151452391805634],\n            [8495653923123431417604973247489272438418190587263600148770280649306958101930,\n             4082367875863433681332203403145435568316851327593401208105741076214120093531]\n        );\n    }\n    /// @return the negation of p, i.e. p.addition(p.negate()) should be zero.\n    function negate(G1Point memory p) pure internal returns (G1Point memory) {\n        // The prime q in the base field F_q for G1\n        uint q = 21888242871839275222246405745257275088696311157297823662689037894645226208583;\n        if (p.X == 0 && p.Y == 0)\n            return G1Point(0, 0);\n        return G1Point(p.X, q - (p.Y % q));\n    }\n    /// @return r the sum of two points of G1\n    function addition(G1Point memory p1, G1Point memory p2) internal view returns (G1Point memory r) {\n        uint[4] memory input;\n        input[0] = p1.X;\n        input[1] = p1.Y;\n        input[2] = p2.X;\n        input[3] = p2.Y;\n        bool success;\n        assembly {\n            success := staticcall(sub(gas(), 2000), 6, input, 0xc0, r, 0x60)\n            // Use \"invalid\" to make gas estimation work\n            switch success case 0 { invalid() }\n        }\n        require(success);\n    }\n\n\n    /// @return r the product of a point on G1 and a scalar, i.e.\n    /// p == p.scalar_mul(1) and p.addition(p) == p.scalar_mul(2) for all points p.\n    function scalar_mul(G1Point memory p, uint s) internal view returns (G1Point memory r) {\n        uint[3] memory input;\n        input[0] = p.X;\n        input[1] = p.Y;\n        input[2] = s;\n        bool success;\n        assembly {\n            success := staticcall(sub(gas(), 2000), 7, input, 0x80, r, 0x60)\n            // Use \"invalid\" to make gas estimation work\n            switch success case 0 { invalid() }\n        }\n        require (success);\n    }\n    /// @return the result of computing the pairing check\n    /// e(p1[0], p2[0]) *  .... * e(p1[n], p2[n]) == 1\n    /// For example pairing([P1(), P1().negate()], [P2(), P2()]) should\n    /// return true.\n    function pairing(G1Point[] memory p1, G2Point[] memory p2) internal view returns (bool) {\n        require(p1.length == p2.length);\n        uint elements = p1.length;\n        uint inputSize = elements * 6;\n        uint[] memory input = new uint[](inputSize);\n        for (uint i = 0; i < elements; i++)\n        {\n            input[i * 6 + 0] = p1[i].X;\n            input[i * 6 + 1] = p1[i].Y;\n            input[i * 6 + 2] = p2[i].X[1];\n            input[i * 6 + 3] = p2[i].X[0];\n            input[i * 6 + 4] = p2[i].Y[1];\n            input[i * 6 + 5] = p2[i].Y[0];\n        }\n        uint[1] memory out;\n        bool success;\n        assembly {\n            success := staticcall(sub(gas(), 2000), 8, add(input, 0x20), mul(inputSize, 0x20), out, 0x20)\n            // Use \"invalid\" to make gas estimation work\n            switch success case 0 { invalid() }\n        }\n        require(success);\n        return out[0] != 0;\n    }\n    /// Convenience method for a pairing check for two pairs.\n    function pairingProd2(G1Point memory a1, G2Point memory a2, G1Point memory b1, G2Point memory b2) internal view returns (bool) {\n        G1Point[] memory p1 = new G1Point[](2);\n        G2Point[] memory p2 = new G2Point[](2);\n        p1[0] = a1;\n        p1[1] = b1;\n        p2[0] = a2;\n        p2[1] = b2;\n        return pairing(p1, p2);\n    }\n    /// Convenience method for a pairing check for three pairs.\n    function pairingProd3(\n            G1Point memory a1, G2Point memory a2,\n            G1Point memory b1, G2Point memory b2,\n            G1Point memory c1, G2Point memory c2\n    ) internal view returns (bool) {\n        G1Point[] memory p1 = new G1Point[](3);\n        G2Point[] memory p2 = new G2Point[](3);\n        p1[0] = a1;\n        p1[1] = b1;\n        p1[2] = c1;\n        p2[0] = a2;\n        p2[1] = b2;\n        p2[2] = c2;\n        return pairing(p1, p2);\n    }\n    /// Convenience method for a pairing check for four pairs.\n    function pairingProd4(\n            G1Point memory a1, G2Point memory a2,\n            G1Point memory b1, G2Point memory b2,\n            G1Point memory c1, G2Point memory c2,\n            G1Point memory d1, G2Point memory d2\n    ) internal view returns (bool) {\n        G1Point[] memory p1 = new G1Point[](4);\n        G2Point[] memory p2 = new G2Point[](4);\n        p1[0] = a1;\n        p1[1] = b1;\n        p1[2] = c1;\n        p1[3] = d1;\n        p2[0] = a2;\n        p2[1] = b2;\n        p2[2] = c2;\n        p2[3] = d2;\n        return pairing(p1, p2);\n    }\n}\n\ncontract Verifier {\n    using Pairing for *;\n    struct VerifyingKey {\n        Pairing.G1Point alpha;\n        Pairing.G2Point beta;\n        Pairing.G2Point gamma;\n        Pairing.G2Point delta;\n        Pairing.G1Point[] gamma_abc;\n    }\n    struct Proof {\n        Pairing.G1Point a;\n        Pairing.G2Point b;\n        Pairing.G1Point c;\n    }\n    function verifyingKey() pure internal returns (VerifyingKey memory vk) {\n        vk.alpha = Pairing.G1Point(uint256(0x19eff1557b79f23ff6ee607d3815647194285898f7938e441c1b86935a68b4dd), uint256(0x24f0973f016bc1692ee245992f15dd98fc495df55cb16e82f9c04d856a4d8efc));\n        vk.beta = Pairing.G2Point([uint256(0x09ff943f4551e8297c37edd2ae22f88369e74bf0dd1f790f2862018d40e0981d), uint256(0x07fb809c50fec215d6951ffbf529f0e6df1acab6f5d6881b25307f89bbecf3cf)], [uint256(0x1dc588be9ca14b595e85bc5223b6fcd7d0c38dc59fbbdd5b54718061fc2e691e), uint256(0x04a0afd1586a94b4624d471fb458ba484057041a2c819ed8a50e19b4be1b4189)]);\n        vk.gamma = Pairing.G2Point([uint256(0x0ce502386934cde6d6382820ddb8f8fd057951a13fa2345f854a5a87d8285b61), uint256(0x1dac6157668604f329182660e7bcc4b5456b72766e694a564132a965ea6ecffd)], [uint256(0x10f4b397fff44a05e07f7c2c1238d59ddcde5e3b62e275792b05dc23e6a76487), uint256(0x0e474bd8465e7dbde48f0c8d1023fecf3a4d356eae32284f22e35ab273cbec4c)]);\n        vk.delta = Pairing.G2Point([uint256(0x242c3a08ee0654e80c55aaaedbdcc357b373089ba98d8d01c37412292dfc4873), uint256(0x2ce8bdb2ac1eb1c37a2eaf0a7a53c3cf8ba379990302cc4bb4fdb1605ebaac17)], [uint256(0x0ea0953a4663f22b9795d632c823b85c35e8cf678cf64f66b5a4f74c5b75104e), uint256(0x0bbc4467271b4930ea6cbf2246ca5ffbd6f283bf0dc14425c74c90c04e546d69)]);\n        vk.gamma_abc = new Pairing.G1Point[](8);\n        vk.gamma_abc[0] = Pairing.G1Point(uint256(0x2f5992dbf9d446be2a041308bb8c603ef02b3e93914ca931b62718e5441703f0), uint256(0x1dbe23a2d7419b416f30ced3f41751dfe78dc0d3f64381935d7dc7785e21dd19));\n        vk.gamma_abc[1] = Pairing.G1Point(uint256(0x068209c31898ddd2af5bd6746c461e11c74ad329e053a0ea9af32443085b417e), uint256(0x1a1a52d89f55a7cacd6a13784dfd6f16882739ef5b2c6d58aadb6a01e68c2432));\n        vk.gamma_abc[2] = Pairing.G1Point(uint256(0x299cd66c8955d063e587d58e42ebc6a906c1975e303771c466ae1db79cad6d16), uint256(0x061c69024e7e2883e08d5d525731559a7f3003628727f98eaa15eb7ace170bdd));\n        vk.gamma_abc[3] = Pairing.G1Point(uint256(0x07caf84720ff297d42eadde6e24a6ef03cc5a61055a0b38d79f6f49091b8b3cd), uint256(0x27e9d13ef13d6c886c5be48f1dde408d0deac8634b144bc9129155d35e5f0cc7));\n        vk.gamma_abc[4] = Pairing.G1Point(uint256(0x0c9cfad153411f842efa954d50f26571733873c728d8c0270a4cb6d90f93a5cc), uint256(0x14c993adfd1e0dc7f1abc2bab67fd22f071dfd1cebca1ae6824d05b6385f4034));\n        vk.gamma_abc[5] = Pairing.G1Point(uint256(0x0532d5717ccb18f2c0d7c9b0717317608019df0821da47905e43aaf9d83665fc), uint256(0x0f64ee4de840143f0c0f6e8619048a77419aaf7786612d1b64748aea9b01c462));\n        vk.gamma_abc[6] = Pairing.G1Point(uint256(0x0a66af4081123d5828fcfd2ab119eb7bf0af988e644b4ea47ddeaefe0c4ac55f), uint256(0x1b65051be178dbf1c86e84e5c02b27be7dc217b155b7069b6155eac62228e889));\n        vk.gamma_abc[7] = Pairing.G1Point(uint256(0x3048ca67a5d1d22e32935b9f823d1fe602261734b64c8a4b11a285bf2d36bfb2), uint256(0x24d5053595d154a075ced75b196782663b2421270e6eb83792adce06d6374626));\n    }\n    function verify(uint[] memory input, Proof memory proof) internal view returns (uint) {\n        uint256 snark_scalar_field = 21888242871839275222246405745257275088548364400416034343698204186575808495617;\n        VerifyingKey memory vk = verifyingKey();\n        require(input.length + 1 == vk.gamma_abc.length);\n        // Compute the linear combination vk_x\n        Pairing.G1Point memory vk_x = Pairing.G1Point(0, 0);\n        for (uint i = 0; i < input.length; i++) {\n            require(input[i] < snark_scalar_field);\n            vk_x = Pairing.addition(vk_x, Pairing.scalar_mul(vk.gamma_abc[i + 1], input[i]));\n        }\n        vk_x = Pairing.addition(vk_x, vk.gamma_abc[0]);\n        if(!Pairing.pairingProd4(\n             proof.a, proof.b,\n             Pairing.negate(vk_x), vk.gamma,\n             Pairing.negate(proof.c), vk.delta,\n             Pairing.negate(vk.alpha), vk.beta)) return 1;\n        return 0;\n    }\n    function verifyTx(\n            Proof memory proof, uint[7] memory input\n        ) public view returns (bool r) {\n        uint[] memory inputValues = new uint[](7);\n        \n        for(uint i = 0; i < input.length; i++){\n            inputValues[i] = input[i];\n        }\n        if (verify(inputValues, proof) == 0) {\n            return true;\n        } else {\n            return false;\n        }\n    }\n}\n\n",
  "sourcePath": "/home/tony/BPSIdm/contracts/ZKPVerifier.sol",
  "compiler": {
    "name": "solc",
    "version": "0.8.19+commit.7dd6d404.Emscripten.clang"
  },
  "schemaVersion": "3.4.13",
  "updatedAt": "2023-05-30T02:52:43.046Z",
  "devdoc": {
    "kind": "dev",
    "methods": {},
    "version": 1
  },
  "userdoc": {
    "kind": "user",
    "methods": {},
    "version": 1
  }
}